:020000040800F2
:1000000000500020A59B0008513800085D3800080A
:10001000753800087D3800088538000800000000A9
:100020000000000000000000000000008D38000803
:100030009938000800000000A5380008B138000811
:10004000E99B0008E99B0008E99B0008E99B000880
:10005000E99B0008E99B0008E99B0008E99B000870
:10006000E99B0008E99B0008E99B0008E99B000860
:10007000E99B0008E99B0008E99B0008E99B000850
:10008000E99B0008E99B0008E99B0008E99B000840
:1000900075390008E99B0008E99B0008E99B000806
:1000A000E99B0008E99B0008E99B0008E99B000820
:1000B000E99B0008E99B0008E99B0008E99B000810
:1000C000E99B0008E99B0008E99B0008E99B000800
:1000D000E99B00085D39000869390008E99B0008C0
:1000E000E99B0008E99B0008813900080000000036
:1000F0000000000000000000000000000000000000
:0C01000000000000000000005FF808F1A3
:10010C0010B5054C237833B9044B13B10448AFF345
:10011C0000800123237010BD5C0D00200000000046
:10012C0060B10008084B10B51BB108480849AFF383
:10013C0000800848036803B910BD074B002BFBD0A7
:10014C00BDE81040184700BF0000000060B1000877
:10015C00600D00205C0D00200000000080B400AF9A
:10016C00BD465DF8047B704780B400AF0123184690
:10017C00BD465DF8047B704780B582B000AF7860F7
:10018C00396009F02DFD0246162313604FF0FF3342
:10019C0018460837BD4680BD80B582B000AF786088
:1001AC0078684FF0FF31FFF7E7FFFEE790B587B0B7
:1001BC0000AFF860B9607A6000237B610AE0BC682C
:1001CC00631CBB60AFF300800346DBB223707B691A
:1001DC0001337B617A697B689A42F0DB7B68184655
:1001EC001C37BD4690BD00BF80B586B000AFF8602F
:1001FC00B9607A6000237B6109E0BB685A1CBA6065
:10020C001B78184603F058F87B6901337B617A69D7
:10021C007B689A42F1DB7B6818461837BD4680BD77
:10022C0080B584B000AF7860114B1B68002B02D1F5
:10023C000F4B104A1A600E4B1B68FB600C4B1A6874
:10024C007B6813446A46934207D909F0C9FC0246FD
:10025C000C2313604FF0FF3306E0054B1A687B68E4
:10026C001344034A1360FB6818461037BD4680BD23
:10027C007C0D0020B024002080B483B000AF7860E7
:10028C004FF0FF3318460C37BD465DF8047B7047C2
:10029C0080B483B000AF786039603B684FF4005293
:1002AC005A60002318460C37BD465DF8047B704736
:1002BC0080B483B000AF7860012318460C37BD467C
:1002CC005DF8047B704700BF80B485B000AFF86068
:1002DC00B9607A60002318461437BD465DF8047B7C
:1002EC00704700BF0EB480B482B000AF78604FF09E
:1002FC00FF3318460837BD465DF8047B03B07047E2
:10030C0080B582B000AF786009F06AFC02460A231F
:10031C0013604FF0FF3318460837BD4680BD00BF51
:10032C0080B582B000AF786009F05AFC0246022317
:10033C0013604FF0FF3318460837BD4680BD00BF31
:10034C0080B483B000AF78604FF0FF3318460C37A1
:10035C00BD465DF8047B704780B483B000AF786015
:10036C0039603B684FF400525A60002318460C3732
:10037C00BD465DF8047B704780B582B000AF7860F5
:10038C00396009F02DFC02461F2313604FF0FF3338
:10039C0018460837BD4680BD80B500AF09F020FC7B
:1003AC0002460B2313604FF0FF33184680BD00BF8D
:1003BC0080B584B000AFF860B9607A6009F010FCC9
:1003CC0002460C2313604FF0FF3318461037BD461E
:1003DC0080BD00BF80B584B000AFF860B9607A60B2
:1003EC003B601A4AFB681360194ABB681360194AD0
:1003FC003B6A1360184ABB691360174AFB69536068
:10040C00154B00221A74144B0022DA81124B002275
:10041C005A81114B00229A810F4B00221A720E4AFC
:10042C007B6853610C4A3B6893610B4B00221A7733
:10043C00094B00225A77084B0022DA83074B002223
:10044C001A6000F0FFF81037BD4680BD840D002007
:10045C00800D0020AC0D00208C0D0020880D00209C
:10046C0080B500AF0D4B5B7F042B16D90B4B0022D4
:10047C001A770A4B00225A77094B1B68002B09D0BC
:10048C00074B1B68054A5169044AD28B0846114632
:10049C0000229847014B0022DA8380BD8C0D00208E
:1004AC00AC0D002080B483B000AF03460A46FB714C
:1004BC001346BB71BB79002B06D0FA79084B1B682D
:1004CC001343074A136006E0FB79DA43044B1B68BD
:1004DC001340034A13600C37BD465DF8047B70472C
:1004EC00880D002080B483B000AF0346FB71FA790D
:1004FC00044B1B68134018460C37BD465DF8047B53
:10050C00704700BF880D002080B400AF034B1B6800
:10051C001846BD465DF8047B704700BF880D00206F
:10052C0080B500AF454B1B68184640F2255106F0CC
:10053C00A7FF0346002B32D0414BDB8B1A46404BB6
:10054C009B699A4202D13D4B1B689B883C4B5A6974
:10055C003B4BDB8B591C88B23949C8831344374A4F
:10056C001268928892B2D2B21A70354B5A69344BD7
:10057C00DB8B013B13441B78184609F05BFB304BBB
:10058C0001221A772E4B00225A772C4B1B682B4AD0
:10059C001268128892B222F0200292B21A80274B73
:1005AC001B68184640F2277106F06AFF0346002BC1
:1005BC0042D0234B9A89224B5B899A421ED01F4B07
:1005CC001B681F4A12681E4989890A44127892B224
:1005DC009A801B4B9B8901331A46194B5B68B2FB03
:1005EC00F3F103FB01F3D31A9AB2154B9A81144B16
:1005FC00DB89013B9AB2124BDA8113E00F4B1B687B
:10060C00184640F22771002206F0C2FC0C4B002267
:10061C001A740B4B00225A81094B00229A81084B09
:10062C000022DA81054B1B68044A1268128892B2C8
:10063C0022F0800292B21A8080BD00BF840D00208F
:10064C008C0D002080B586B000AF464B1B68464A27
:10065C00934209D10420012105F070FE4FF4804033
:10066C00012105F06BFE0DE03E4B1B683F4A9342A7
:10067C0008D10420012105F061FE4FF40030012166
:10068C0005F05CFE374B1B68374A934203D14FF49D
:10069C000073BB8206E0334B1B68344A934201D192
:1006AC000423BB821823FB750323BB7507F11403CA
:1006BC002F48194605F08EF82A4B1B682A4A93429C
:1006CC0003D14FF48063BB8206E0264B1B68274A9C
:1006DC00934201D10823BB820423FB7507F1140359
:1006EC002348194605F076F8224B1B687B600023E3
:1006FC003B8100237B810023BB8100233B820C23A5
:10070C00FB81184B1A683B1D1046194606F008FB76
:10071C00144B1B68184640F22551012206F038FC98
:10072C00104B1B68104A934202D125233B7006E004
:10073C000C4B1B680D4A934201D126233B700023BE
:10074C007B700023BB700123FB703B46184603F003
:10075C0049FF044B1B681846012106F0F9FB1837BA
:10076C00BD4680BD840D002000380140004400408F
:10077C0000080140800D002080B582B000AF786089
:10078C00204B5B8901331A461E4B5B68B2FBF3F1BD
:10079C0003FB01F3D31A1B4A9289934201D17B6864
:1007AC002BE0184BDB8901339AB2164BDA81154BCF
:1007BC001B68144A528913447A68D2B21A70114BCE
:1007CC005B8901331A460F4B5B68B2FBF3F103FBF9
:1007DC0001F3D31A9AB20B4B5A810A4B1B7C002B98
:1007EC000AD1084B01221A74074B1B68184640F2B9
:1007FC002771012206F0CCFB7B6818460837BD46F2
:10080C0080BD00BF8C0D0020840D002080B582B00F
:10081C0000AF786039601D4A7B6813601C4A3B68E6
:10082C0013601C4B1C4A5A611A4B4FF400729A61AC
:10083C00184B0022DA83174B00221A77154B002233
:10084C005A77144B154A1A60124B4FF480725A6047
:10085C00104B00229A810F4B9A890E4B5A810D4BEB
:10086C0000221A720B4B00221A740A4B0022DA81F6
:10087C0001F022F90420FFF735FE0346002B02D0CD
:10088C00074809F063FA0837BD4680BDDC0D00202F
:10089C00D80D0020B40D0020180E002018100020D8
:1008AC0078B1000880B483B000AF7860034A7B68ED
:1008BC0013600C37BD465DF8047B7047D40D0020E7
:1008CC0090B587B002AF78604FF0FF33FB6007F153
:1008DC000803184600F0ECFC07F108044FF47A7397
:1008EC0000930B480B490C4A234600F0EFFEF860CE
:1008FC00FB68012B03D1BA687B681A6002E07B6845
:10090C0000221A60FB6818461437BD4690BD00BF24
:10091C008CB1000890B10008A0B1000890B587B068
:10092C0002AF78604FF0FF33FB6007F10803184605
:10093C0000F0BEFC07F108044FF47A7300930B48E7
:10094C000B490C4A234600F0C1FEF860FB68012BF2
:10095C0003D1BA687B681A6002E07B6800221A60D7
:10096C00FB6818461437BD4690BD00BF8CB100081B
:10097C00B4B10008C4B1000880B500AF054801F05F
:10098C0089F805484FF4FA6100F092FE03461846C8
:10099C0080BD00BFC8B100088CB1000880B590B014
:1009AC0000AF0346FB71FB7907F10C0210463221B4
:1009BC00084A09F0D3F907F10C03184601F06AF85C
:1009CC0005484FF4FA6100F073FE034618464037B1
:1009DC00BD4680BDD0B100088CB1000880B584B094
:1009EC0002AF7860084801F055F84FF47A73009321
:1009FC0006480749074A7B6800F068FE034618461C
:100A0C000837BD4680BD00BFD8B100088CB10008C6
:100A1C00E4B10008E8B1000880B500AF054801F06A
:100A2C0039F805484FF47A7100F042FE0346184637
:100A3C0080BD00BFF0B100088CB1000890B587B044
:100A4C0002AF78604FF0FF33FB607B68002B01D165
:100A5C00FB681CE0104801F01DF807F108044FF486
:100A6C007A7300930D480E490E4A234600F02EFE71
:100A7C00F860FB68002B09D0BB68184600210A22DD
:100A8C0009F0D2FA0346DAB27B681A70FB68184692
:100A9C001437BD4690BD00BFFCB100088CB10008F6
:100AAC000CB20008E8B1000880B590B000AF034666
:100ABC00FB71FB7907F10C0210463221094A09F04F
:100ACC004DF907F10C03184600F0E4FF06480749FE
:100ADC004FF47A7200F0F4FC034618464037BD46DA
:100AEC0080BD00BF18B200088CB1000828B2000805
:100AFC0080B582B000AF786039600C4800F0CAFF56
:100B0C00786800F0C7FF0A4800F0C4FF386800F0AE
:100B1C00C1FF084800F0BEFF074842F2107100F018
:100B2C007FFD034618460837BD4680BD34B2000829
:100B3C0040B2000844B200088CB1000880B584B003
:100B4C0002AF7860084800F0A5FF42F210730093E2
:100B5C0006480749074A7B6800F0B8FD034618466B
:100B6C000837BD4680BD00BF48B200088CB10008F4
:100B7C00E4B10008E8B1000880B500AF054800F00A
:100B8C0089FF05484FF4FA7100F092FD03461846B0
:100B9C0080BD00BF54B200088CB1000880B582B093
:100BAC0000AF7860094800F075FF786800F072FFBC
:100BBC00074800F06FFF074841F2883100F030FD24
:100BCC00034618460837BD4680BD00BF60B200081A
:100BDC0044B200088CB1000880B592B000AFF86048
:100BEC00B96011461A460B46FB711346BB711B4884
:100BFC0000F050FFF86800F04DFF194800F04AFF74
:100C0C00B86800F047FF174800F044FFFB7907F184
:100C1C00140210463221144A09F0A0F807F114030B
:100C2C00184600F037FF114800F034FFBB7907F18C
:100C3C001402104632210E4A09F090F807F1140301
:100C4C00184600F027FF0B4841F2883100F0E8FC11
:100C5C00034618464837BD4680BD00BF6CB200083D
:100C6C0040B2000878B200087CB2000880B20008DC
:100C7C0084B200088CB1000880B592B000AFF86067
:100C8C00B96011461A460B46FB711346BB711B48E3
:100C9C0000F000FFF86800F0FDFE194800F0FAFEC5
:100CAC00B86800F0F7FE174800F0F4FEFB7907F186
:100CBC00140210463221144A09F050F807F11403BB
:100CCC00184600F0E7FE114800F0E4FEBB7907F18E
:100CDC001402104632210E4A09F040F807F11403B1
:100CEC00184600F0D7FE0B4841F2883100F098FC12
:100CFC00034618464837BD4680BD00BF8CB200087D
:100D0C0040B2000878B200087CB2000880B200083B
:100D1C0084B200088CB1000880B592B000AFF860C6
:100D2C00B96011461A460B46FB711346BB711B4842
:100D3C0000F0B0FEF86800F0ADFE194800F0AAFE15
:100D4C00B86800F0A7FE174800F0A4FEFB7907F185
:100D5C00140210463221144A09F000F807F114036A
:100D6C00184600F097FE114800F094FEBB7907F18D
:100D7C001402104632210E4A08F0F0FF07F114035A
:100D8C00184600F087FE0B4841F2883100F048FC11
:100D9C00034618464837BD4680BD00BF9CB20008CC
:100DAC0040B2000878B200087CB2000880B200089B
:100DBC0084B200088CB1000880B584B002AF7860B2
:100DCC00084800F067FE4FF47A7300930648074911
:100DDC00074A7B6800F07AFC034618460837BD4684
:100DEC0080BD00BFACB200088CB10008E4B10008B3
:100DFC00E8B1000880B584B002AF7860084800F014
:100E0C0049FE4FF47A73009306480749074A7B68FA
:100E1C0000F05CFC034618460837BD4680BD00BF99
:100E2C00B8B200088CB10008E4B10008E8B10008C1
:100E3C0080B592B000AFF860B96011461A460B4607
:100E4C00FB801346BB804FF0FF337B64374800F0C8
:100E5C0021FEF86800F01EFE354800F01BFEB86855
:100E6C0000F018FE334800F015FEF86832490322F2
:100E7C0008F0BCFF0346002B20D1FB8807F11002C1
:100E8C00104632212D4A08F069FF07F1100318466D
:100E9C0000F000FE2A4800F0FDFDBB8807F11002AF
:100EAC0010463221254A08F059FF07F11003184665
:100EBC0000F0F0FD234800F0EDFD0FE0FB8807F19A
:100ECC001002104632211D4A08F048FF07F11003AA
:100EDC00184600F0DFFD1C4800F0DCFD1B481C49E7
:100EEC001C4A4FF4FA7300F03DFB78647B6C012BC9
:100EFC0017D1194B5B691846144908F0A2FF034639
:100F0C00002B08D1144B5B691846124908F099FF65
:100F1C000346002B02D001237B6402E04FF0FF3329
:100F2C007B647B6C18464837BD4680BDC8B2000850
:100F3C0040B2000878B20008D8B200087CB20008B1
:100F4C0080B20008DCB20008E4B200088CB10008E2
:100F5C00E8B20008F0B20008B40D002080B592B0E1
:100F6C0000AFB9607A601A460346FB731346BB8127
:100F7C004FF0FF337B642A4800F08CFDFB7B07F1BC
:100F8C00100210463221274A08F0E8FE07F1100340
:100F9C00184600F07FFD244800F07CFDB86800F096
:100FAC0079FD224800F076FD786800F073FD20484A
:100FBC0000F070FDBB8907F11002104632211D4A6A
:100FCC0008F0CCFE07F11003184600F063FD1A4838
:100FDC001A491B4A42F2107300F0C4FA78647B6C15
:100FEC00012B17D1174B5B691846134908F029FFE1
:100FFC000346002B08D1134B5B691846104908F0C7
:10100C0020FF0346002B02D001237B6402E04FF04B
:10101C00FF337B647B6C18464837BD4680BD00BFF0
:10102C0000B300087CB2000810B3000840B20008FE
:10103C0078B2000884B200088CB10008E8B200084D
:10104C00F0B20008B40D002080B592B000AF78600B
:10105C0039604FF0FF337B64194800F01BFD07F13A
:10106C000C0318463221174A3B6808F077FE07F14B
:10107C000C03184600F00EFD134841F2883100F0C5
:10108C0017FB0346002B16D000233B6409E07A685B
:10109C003B6C13441B78184600F09AFC3B6C0133F4
:1010AC003B643A6C3B689A42F1D3084842F21071A7
:1010BC0000F0FEFA78647B6C18464837BD4680BD5C
:1010CC0014B3000820B3000828B300082CB30008A0
:1010DC0090B59BB002AF0346B9607A60FB734FF0DA
:1010EC00FF33FB650023BB657B687B654FF40073A6
:1010FC00BB6400233B6560E07A6DBB6C9A4202D303
:10110C00BB6CBB6501E07B6DBB65FC7B07F114021E
:10111C00BB6D0093104632212C4A234608F01EFE6C
:10112C000420FFF7DFF90346002B04D007F114036A
:10113C00184608F067FD07F11403184600F0AAFCE6
:10114C00234841F2883100F0B3FA0346002B2CD02F
:10115C000420FFF7C7F90346002B03D01D48B96DD7
:10116C0008F050FD0023FB640BE0FA6C3B6D13445C
:10117C00BA6813441B78184600F02AFCFB6C013348
:10118C00FB64FA6CBB6D9A42EFD3134841F2883181
:10119C0000F08EFAF8650420FFF7A4F90346002B43
:1011AC0003D00E48F96D08F02DFD7A6DBB6DD31A86
:1011BC007B653A6DBB6D13443B657B6D002B9BD1FE
:1011CC00FB6D18466437BD4690BD00BF34B30008B4
:1011DC0028B3000848B300082CB300085CB300081F
:1011EC0080B590B000AF0346FB714FF0FF33FB634B
:1011FC000420FFF777F90346002B04D0FB791D4838
:10120C00194608F0FFFC1C4800F044FCFB7907F180
:10121C00080210463221194A08F0A0FD07F1080314
:10122C00184600F037FC1648164941F2883200F097
:10123C0047F9F863FB6B012B17D1134B5B6918460D
:10124C000F4908F0FEFD0346002B08D10E4B5B69DD
:10125C0018460C4908F0F5FD0346002B02D001237B
:10126C00FB6302E04FF0FF33FB63FB6B1846403728
:10127C00BD4680BD68B300087CB3000884B200088A
:10128C008CB100088CB30008B40D002080B500AF01
:10129C00054800F0FFFB054841F2883100F008FAE0
:1012AC000346184680BD00BF98B300088CB10008F7
:1012BC0080B584B002AF7860084800F0EBFB4FF4C7
:1012CC007A73009306480749074A7B6800F0FEF9D9
:1012DC00034618460837BD4680BD00BFA8B30008BA
:1012EC008CB10008E4B10008E8B1000880B590B0FA
:1012FC0000AF0346FB714FF0FF33FB63FB7907F143
:10130C00080210463221134A08F028FD07F10803A1
:10131C00184600F0BFFB104810494FF47A7200F0E9
:10132C00CFF8F863FB6B012B0ED10D4B5B691846A4
:10133C00094908F086FD0346002B02D00123FB630C
:10134C0002E04FF0FF33FB63FB6B18464037BD46A2
:10135C0080BD00BFB4B300088CB10008C4B3000852
:10136C00B40D002080B590B000AF03460A46FB7167
:10137C001346BB804FF0FF33FB63FB79002B2FD060
:10138C00BB8807F10802104632211D4A08F0E6FC22
:10139C0007F10803184600F07DFB1A481A4940F67D
:1013AC00B83200F08DF8F863FB6B012B22D1174B90
:1013BC005B691846134908F044FD0346002B08D11D
:1013CC00124B5B691846104908F03BFD0346002B95
:1013DC0002D00123FB630DE04FF0FF33FB6309E008
:1013EC000B4800F057FB0B484FF47A7100F060F992
:1013FC00034600E0FB6B18464037BD4680BD00BF7E
:10140C00D4B300088CB1000828B20008B40D002039
:10141C00E8B30008E4B1000880B590B000AF786084
:10142C0007F10C0318463221094A7B6808F096FC38
:10143C0007F10C03184600F02DFB06484FF47A71A7
:10144C0000F036F9034618464037BD4680BD00BF54
:10145C00FCB300088CB1000890B591B000AF786077
:10146C004FF0FF33FB63786808F0B8FC044607F1D3
:10147C000803184632210F4A234608F06FFC07F187
:10148C000803184600F006FB0B484FF47A7100F085
:10149C000FF90346002B08D0786800F0FBFA0748D8
:1014AC004FF4FA7100F004F9F863FB6B18464437FB
:1014BC00BD4690BD0CB4000828B300082CB300083E
:1014CC0080B586B000AFF860B9607A6000237B61AC
:1014DC007B689AB2204B1A8034E0204B1B7F002B88
:1014EC0030D01E4B5B7F092B2CD91C4B5B691B4AE4
:1014FC00D28B134400221A70184B5B691846F9689A
:10150C0008F09FFC0346002B08D1144B5B6918466E
:10151C00B96808F096FC0346002B13D001237B61BD
:10152C000420FEF7DFFF0346002B0AD00B4BDB8BAE
:10153C001A460A4B5B690A4811461A4608F062FBC8
:10154C0004E003E0044B1B88002BC6D17B691846D2
:10155C001837BD4680BD00BFB00D0020B40D002073
:10156C001CB4000880B586B000AFF860B9607A6032
:10157C003B6000237B613B689AB2264B1A803FE0AC
:10158C00254B1B7F002B3BD0234B5B7F092B37D983
:10159C0001237B61204B5B691F4AD28B13440022D1
:1015AC001A701D4B5B691846F96808F04AFC034633
:1015BC00002B11D1184B5B691846B96808F041FC37
:1015CC000346002B08D1144B5B691846796808F068
:1015DC0038FC0346002B13D001237B610420FEF75B
:1015EC0081FF0346002B0AD00B4BDB8B1A460A4BB0
:1015FC005B690A4811461A4608F004FB04E003E054
:10160C00044B1B88002BBBD17B6918461837BD4691
:10161C0080BD00BFB00D0020B40D00201CB400082C
:10162C0080B584B000AF786039600023FB603B6804
:10163C009AB21C4B1A802BE01B4B1B7F002B27D024
:10164C00194B5B7F092B23D9174B5B69164AD28B3D
:10165C00134400221A70144B5B691846796808F021
:10166C00F0FB0346002B13D00123FB600420FEF794
:10167C0039FF0346002B0AD00B4BDB8B1A460A4B67
:10168C005B690A4811461A4608F0BCFA04E003E00C
:10169C00044B1B88002BCFD1FB6818461037BD4676
:1016AC0080BD00BFB00D0020B40D00201CB400089C
:1016BC0080B582B000AF7860396078683968FFF720
:1016CC00AFFF034618460837BD4680BD80B586B0CF
:1016DC0000AFF860B9607A603B603B6800221A602A
:1016EC00F868396AFFF79CFF0346002B20D0134B98
:1016FC005B691846B96808F0A4FB78617869796869
:10170C0008F09FFB38617B69002B11D03B69002BE3
:10171C000ED0B86808F062FB02467B6913447B610B
:10172C003B687A691A603B6900221A70012301E058
:10173C004FF0FF3318461837BD4680BDB40D00205E
:10174C0090B58BB000AF00237B62002387F8233069
:10175C00744B1B68002B00F0DF80734B1B7F002B3E
:10176C0000F0DA80704B5B7F632B40F2D580002356
:10177C00BB6100237B613B4600221A6004330022CC
:10178C001A60043300221A60043300221A600433F6
:10179C0000221A6004330023FB611BE0624B5A6980
:1017AC00FB6913441B782B2B11D15F4B5A69FB69D6
:1017BC00134418465D49052208F018FB0346002B1C
:1017CC0005D1FB690533BB6101237B610BE0FB6930
:1017DC000133FB61FC69544B5B69184608F0FEFA57
:1017EC0003469C42DAD37B69002B3BD000237B6100
:1017FC000420FEF777FE0346002B02D04C4808F07D
:10180C00A5FABB69FB6124E0474B5A69FB69134499
:10181C001B782C2B1AD1444B5A69BB69D118FA6925
:10182C00BB69D31A1A463B46184608F0F8FA3B46F1
:10183C00184600210A2208F0F7FB034687F82330EC
:10184C00FB690133BB6101237B610BE0FB69013355
:10185C00FB61FC69344B5B69184608F0BFFA034620
:10186C009C42D1D37B69002B3CD000237B610420AC
:10187C00FEF738FE0346002B05D097F823302D4891
:10188C00194608F0BFF9BB69FB6122E0264B5A6987
:10189C00FB6913441B783A2B18D1234B5A69BB694B
:1018AC00D118FA69BB69D31A1A463B46184608F098
:1018BC00B6FA3B46184600210A2208F0B5FB7862BE
:1018CC0001237B61FB690133BB610BE0FB690133D5
:1018DC00FB61FC69144B5B69184608F07FFA034600
:1018EC009C42D3D37B69002B16D000237B61042050
:1018FC00FEF7F8FD0346002B03D00F48796A08F079
:10190C0081F9084B1B68084A5169BA69114497F868
:10191C0023200846796A98477B6A18462C37BD46BF
:10192C0090BD00BFD40D0020B40D00202CB40008D5
:10193C0034B4000840B4000850B4000880B500AFBF
:10194C00094B0022DA83084B00221A77064B00223F
:10195C005A77054B5A69044B9B69104600211A466D
:10196C0008F012F980BD00BFB40D002080B485B022
:10197C0000AF786039600023FB603B689AB2124B71
:10198C001A8016E0114B1B7F002B12D00F4B5B7F84
:10199C00312B0ED90D4B5B690C4AD28B13440022B0
:1019AC001A700A4B5A697B681A60084BDB8BFB6018
:1019BC0003E0054B1B88002BE4D1FB681846143759
:1019CC00BD465DF8047B7047B00D0020B40D0020BF
:1019DC0080B582B000AF0346FB710A4B1B68FA79E5
:1019EC0092B29A8000BF074B1B681846402105F045
:1019FC001BFD0346002BF6D0FB7918460837BD4675
:101A0C0080BD00BFDC0D002080B586B000AF7860D3
:101A1C0039603B687B613B683B610023FB600023C2
:101A2C00BB60FFF78BFF2AE000BF194BDB89002B53
:101A3C00FBD1174B5A687B699A4203D8144B5B68ED
:101A4C003B6101E07B693B610023FB600BE0FA68C2
:101A5C00BB6813447A6813441B781846FFF7B8FF29
:101A6C00FB680133FB60FA683B699A42EFD37A69F1
:101A7C003B69D31A7B61BA683B691344BB607B69D1
:101A8C00002BD1D13B6818461837BD4680BD00BF2E
:101A9C00B40D002080B582B000AF7860786808F093
:101AAC009DF9034678681946FFF7AEFF03461846C2
:101ABC000837BD4680BD00BF80B586B000AF4A4B2D
:101ACC001B684A4A93420DD10420012104F036FCD4
:101ADC000120012104F032FC4FF48040012104F07C
:101AEC002DFC11E0404B1B68414A93420CD1042061
:101AFC00012104F023FC0120012104F01FFC4FF410
:101B0C000030012104F038FC374B1B68374A9342F4
:101B1C0003D14FF40073BB8206E0334B1B68344A8D
:101B2C00934201D10423BB821823FB750323BB759D
:101B3C0007F114032F48194603F04CFE2A4B1B687F
:101B4C002A4A934203D14FF48063BB8206E0264BB2
:101B5C001B68274A934201D10823BB820423FB75DF
:101B6C0007F114032348194603F034FE224B1B687B
:101B7C007B6000233B8100237B810023BB810023FE
:101B8C003B820C23FB81184B1A683B1D10461946EF
:101B9C0005F0C6F8144B1B68184640F2255101227B
:101BAC0005F0F6F9104B1B68104A934202D125231D
:101BBC003B7006E00C4B1B680D4A934201D1262367
:101BCC003B7000237B700023BB700123FB703B46F2
:101BDC00184602F007FD044B1B681846012105F05E
:101BEC00B7F91837BD4680BDDC0D00200038014028
:101BFC000044004000080140D80D002080B500AF23
:101C0C00194B1B68184640F2255105F039FC034668
:101C1C00002B28D0154BDB8B1A46144B9B699A4230
:101C2C0002D1114B1B689B88104B5A690F4BDB8BF5
:101C3C00591C88B20D49C88313440B4A1268928808
:101C4C0092B2D2B21A70094B01221A77074B0022BA
:101C5C005A77054B1B68044A1268128892B222F01C
:101C6C00200292B21A8080BDDC0D0020B40D002041
:101C7C0080B582B000AF78603960022003F076F84E
:101C8C000F4A7B6813603B689A020D4B1B68134428
:101C9C000C4A13600820FEF725FC0346002B0CD0E1
:101CAC00084B1B681B0C9BB21A46064B1B689BB25D
:101CBC00054811461A4607F0A5FF0837BD4680BDFA
:101CCC00E00D0020E40D002064B4000880B58AB05B
:101CDC0000AF78600B467B800423FB7300233B61D1
:101CEC0000237B6200233B620023BB600023FB8349
:101CFC000023BB8304237B8300237B6103F094F8D4
:101D0C00414B1A68414B1B68D31A9B0A3B61342028
:101D1C0003F038FC00237B620CE07B6A9A023B4B9D
:101D2C001B681344184603F0ADF80346FB737B6A3B
:101D3C0001337B627A6A3B699A4203D2FB7BDBB24A
:101D4C00042BEAD0314B1B683B627B88BB8300239E
:101D5C00FB833AE00023BB60BB8B032B0FD904231E
:101D6C007B83FB8B9B001A467B681A447B8B07F1A9
:101D7C000801084611461A4607F038FF16E0BB8BDF
:101D8C007B83FB8B9B001A467B681A447B8B07F189
:101D9C000801084611461A4607F028FFBA68BB8BA3
:101DAC00C3F10403DB0002FA03F3BB60BB68386ABF
:101DBC00194603F05FF9BA8B7B8BD31ABB833B6A52
:101DCC0004333B62FB8B0133FB83BB8B002BC1D1F8
:101DDC0003F04AF87B887868194600F077F80346D8
:101DEC00002B01D001237B610820FEF77BFB03460F
:101DFC00002B03D00648796907F004FF7B6918466D
:101E0C002837BD4680BD00BFE40D0020E00D00204A
:101E1C0080B4000880B586B000AF78600B467B803C
:101E2C000023BB600023FB820023BB8204237B8244
:101E3C000023FB60244B1B68FB607B88BB82002368
:101E4C00FB823BE00023BB60BB8A032B12D904232B
:101E5C007B82FB681B68BB60FB8A9B001A467B6815
:101E6C0099187B8A07F10802084611461A4607F0B2
:101E7C00BDFE19E0BB8A7B82FB681B68BB60BA683D
:101E8C00BB8AC3F10403DB0022FA03F3BB60FB8AB9
:101E9C009B001A467B6899187B8A07F10802084652
:101EAC0011461A4607F0A2FEBA8A7B8AD31ABB8265
:101EBC00FB680433FB60FB8A0133FB82BB8A002B7B
:101ECC00C0D11837BD4680BDE00D002080B588B06C
:101EDC0000AF78600B467B800023FB600023FB8304
:101EEC000023BB8304237B8300237B6100233B61A2
:101EFC002B4B1B687B617B88BB830023FB833BE004
:101F0C000023FB60BB8B032B0FD904237B83FB8B40
:101F1C009B001A467B681A447B8B07F10C01084620
:101F2C0011461A4607F062FE16E0BB8B7B83FB8BD7
:101F3C009B001A467B681A447B8B07F10C01084600
:101F4C0011461A4607F052FEFA68BB8BC3F1040324
:101F5C00DB0002FA03F3FB607B691A68FB689A42A8
:101F6C0000D00EE0BA8B7B8BD31ABB837B69043316
:101F7C007B61FB8B0133FB83BB8B002BC0D101231B
:101F8C003B610820FEF7AEFA0346002B03D0054850
:101F9C00396907F037FE3B6918462037BD4680BDCE
:101FAC00E00D002094B4000880B586B000AF034665
:101FBC00B9607A60FB73B868B5490A2207F016FF5E
:101FCC000346002B12D10120FEF78CFA0346002B9E
:101FDC0002D0B04807F0BAFEAF4807F0FFFE024649
:101FEC00FB7B1846AC49FFF773F84EE1B868AB4978
:101FFC00072207F0FBFE0346002B40F04681BB682E
:10200C0007331846A649042207F0F0FE0346002BBE
:10201C0040F03B81BB680B337B617869A149052299
:10202C0007F0E4FE0346002B17D19F4B03F59553A5
:10203C0004331B681B78FF2B00F00D819A4B03F5C2
:10204C00955304331A68984B03F5955304331B6866
:10205C001B780133DBB21370FDE0786993490522DC
:10206C0007F0C4FE0346002B17D18F4B03F5955395
:10207C0004331B681B78002B00F0ED808A4B03F5B2
:10208C00955304331A68884B03F5955304331B6836
:10209C001B78013BDBB21370DDE0786984490522C3
:1020AC0007F0A4FE0346002B1ED17F4B03F595537E
:1020BC0004331B681B78F92B0ED87B4B03F5955317
:1020CC0004331A68784B03F5955304331B681B785B
:1020DC000533DBB21370BEE0734B03F59553043339
:1020EC001B68FA221A70B6E078697249052207F06B
:1020FC007DFE0346002B1ED16B4B03F59553043329
:10210C001B681B78052B0ED9674B03F595530433CD
:10211C001A68654B03F5955304331B681B78053B14
:10212C00DBB2137097E0604B03F5955304331B68D7
:10213C0000221A708FE078695F49052207F056FE7D
:10214C000346002B06D1584B03F5955304335B4AD9
:10215C001A6080E078695A49052207F047FE034669
:10216C00002B06D1504B03F595530433554A1A6096
:10217C0071E078695449052207F038FE0346002BBC
:10218C0006D1494B03F595530433504A1A6062E06B
:10219C0078694F49052207F029FE0346002B06D12A
:1021AC00414B03F5955304334A4A1A6053E078695E
:1021BC004949052207F01AFE0346002B06D13A4B7B
:1021CC0003F595530433454A1A6044E07869444951
:1021DC00052207F00BFE0346002B0FD10120FEF762
:1021EC0081F90346002B02D03E4807F0AFFD3E4A72
:1021FC003D4BDB6843F48053D3602CE078693B495A
:10220C00052207F0F3FD0346002B0FD10120FEF74A
:10221C0069F90346002B02D0354807F097FD324A86
:10222C00314BDB6823F48053D36014E07869314977
:10223C00052207F0DBFD0346002B0CD10120FEF735
:10224C0051F90346002B02D02B4807F07FFD2B4899
:10225C005821FFF73BFD144B03F5955304331B68D2
:10226C001B780120194601F043F80120FEF73AF9DA
:10227C000346002B09D00C4B03F5955304331B6814
:10228C001B781F48194607F0BDFC1837BD4680BDAA
:10229C00A8B40008B4B4000804000020C0B40008BE
:1022AC00C8B40008D0B4000818110020D8B4000835
:1022BC00E0B40008E8B40008F0B4000813240020CF
:1022CC00F8B400081424002000B5000815240020E0
:1022DC0008B500081624002010B5000817240020AB
:1022EC0018B5000820B50008000C01402CB50008FA
:1022FC0034B5000840B5000848B50008C0230020DC
:10230C0068B5000880B400AF034B03221A60BD46C9
:10231C005DF8047B704700BF040E002080B582B0CE
:10232C0000AF094B7B607B689B7A002B03D0074B7B
:10233C0005221A6002E0054B01221A6001F022FB13
:10234C000837BD4680BD00BF7C240020040E002051
:10235C0080B584B000AF0E4B1B68FB600D4B1B6847
:10236C00BB600D4B1B687B60FA687B681344FB6099
:10237C00FB68002B09D0F8680849082200F012F815
:10238C00B8680749042200F00DF81037BD4680BD2F
:10239C00E8F7FF1FECF7FF1FF0F7FF1FF60B00200D
:1023AC00060C002080B487B000AFF860B96013460B
:1023BC00FB710023FB750023FB7527E0FB681B0FEB
:1023CC00092B0BD8FB7D5B001A46BB681344FA68DB
:1023DC00120FD2B23032D2B21A700AE0FB7D5B001F
:1023EC001A46BB681344FA68120FD2B23732D2B213
:1023FC001A70FB681B01FB60FB7D5B000133BA6844
:10240C00134400221A70FB7D0133FB75FA7DFB79B6
:10241C009A42D3D31C37BD465DF8047B704700BF8E
:10242C0080B584B000AF78600B467B800023FB73D3
:10243C00454B03F580531A331B881A467B8813448B
:10244C00C3F30A02404B03F580531C331B889A429A
:10245C0001D1002374E03C4B03F580531E331A88E2
:10246C007B8813449AB2384B03F580531E331A8081
:10247C000023BB600023BB6026E0334B03F5805385
:10248C001A331B881946BB687A6813441A782E4B8A
:10249C000B4483F81A282C4B03F580531A331B88F2
:1024AC005A1C2A4B1340002B05DA013B6FEA4353AD
:1024BC006FEA535301339AB2234B03F580531A330B
:1024CC001A80BB680133BB607A88BB689A42D4DC43
:1024DC001D4B9B7B002B32D07B883F2B02D87B88FB
:1024EC00FB7301E04023FB73174B03F580531C3344
:1024FC001B8803F61803144A13449A1CFB7B9BB2EB
:10250C001046C0211A4606F009FAFB7B9BB201204B
:10251C00194606F023FF012006F014FC0A4B03F5C4
:10252C0080531C331A88FB7B9BB213449AB2064B24
:10253C0003F580531C331A80034B00229A7301233A
:10254C0018461037BD4680BD18110020FF070080CB
:10255C0080B500AF032006F01DFC0123184680BD9A
:10256C0080B483B000AF0346FB800C37BD465DF8EA
:10257C00047B704780B586B000AF0420012103F0C6
:10258C00DDFE4FF48050012103F0D8FEA023BB8266
:10259C000323BB751823FB7507F114031B4819465D
:1025AC0003F018F91023BB821023FB7507F11403F9
:1025BC001648194603F00EF94023BB820423FB7521
:1025CC0007F114031148194603F004F900233B806A
:1025DC004FF482737B800023BB800023FB8000239D
:1025EC003B814FF400737B810023BB810023FB8173
:1025FC000A233B820648002104F04CFA3B4604486F
:10260C00194603F0F1FF1837BD4680BD00080140A4
:10261C000030014080B584B000AF4FF4C06001F0D1
:10262C00CFFF002003F03EFD4FF40000012103F02A
:10263C00A3FE4FF4A06001F0C3FF14233B730223ED
:10264C007B730023BB730123FB7307F10C03184648
:10265C0001F0C8FF2A233B7301237B7307F10C03A2
:10266C00184601F0BFFF4FF4802002F071FB4FF4CD
:10267C0080237B6008237B720123BB723B1D1846B1
:10268C0002F080FA1037BD4680BD00BF80B586B021
:10269C0000AF0420012103F051FE4FF40030012162
:1026AC0003F04CFE0423BB821823FB750323BB757C
:1026BC0007F114031C48194603F08CF80823BB825D
:1026CC000423FB7507F114031748194603F082F82D
:1026DC004FF416537B6000233B8100237B81002346
:1026EC00BB8100233B820C23FB813B1D0F48194609
:1026FC0004F016FB0E4840F22551012204F048FC70
:10270C0025233B7000237B700023BB700123FB70DF
:10271C003B46184601F066FF0548012104F018FC01
:10272C001837BD4680BD00BF000801400044004082
:10273C000038014080B582B000AF0820012103F0C1
:10274C00FDFD4FF48053BB801023FB710123BB7143
:10275C003B1D0648194603F03DF8044A034BDB6861
:10276C0023F48053D3600837BD4680BD000C014074
:10277C0080B584B000AF78600B467B807B68204AC4
:10278C00934204D10420012103F0D8FD10E07B68B2
:10279C001C4A934204D10820012103F0CFFD07E02D
:1027AC007B68194A934203D11020012103F0C6FD26
:1027BC00164A7B681360164A7B881380154B0022DF
:1027CC001A70154B00221A700123BB73104B1B8817
:1027DC00BB811023FB730D4B1A6807F10C031046D9
:1027EC00194602F0F7FF094B1B68084A1268D268B9
:1027FC0007490988C9430A40DA601037BD4680BDD5
:10280C0000080140000C014000100140EC0D0020BC
:10281C00F00D0020E80D0020E90D002080B483B0FD
:10282C0000AF0346FB71044AFB7913700C37BD46AD
:10283C005DF8047B704700BFE80D002080B400AF4A
:10284C00174B1B781A46174B1B7842FA03F303F00D
:10285C000103002B09D0144B1B68134A1268D26871
:10286C00124909880A43DA6009E00F4B1B680E4ACB
:10287C001268D2680D490988C9430A40DA60094BCD
:10288C001B780133DAB2074B1A70064B1B78082BF6
:10289C0002D1044B00221A70BD465DF8047B7047D0
:1028AC00E80D0020E90D0020EC0D0020F00D0020BB
:1028BC0080B483B000AF03463960FB7197F90730E1
:1028CC00002B0BDA0D49FB7903F00F03043B3A683C
:1028DC00D2B21201D2B20B441A7609E0084997F928
:1028EC0007303A68D2B21201D2B20B4483F80023FB
:1028FC000C37BD465DF8047B704700BF00ED00E06F
:10290C0000E100E080B582B000AF78607B68B3F185
:10291C00807F01D3012311E00A4A7B6823F07F43B7
:10292C00013B53604FF0FF300F21FFF7C1FF054B08
:10293C0000229A60034B07221A60002318460837BE
:10294C00BD4680BD10E000E080B584B000AF03460A
:10295C00FB80FEF761F800BFFEF70EF80346002B74
:10296C00FAD00020FEF71AF81E481F49FEF7C0F8EF
:10297C0007F10C031846FDF7A3FF0120FDF7B2FD8C
:10298C000346002B04D0FB681848194607F03AF9A7
:10299C0007F10C031846FDF7C1FF0120FDF7A2FD5E
:1029AC000346002B04D0FB681148194607F02AF99E
:1029BC000120FEF79BFC3C20FEF72EFD0120502150
:1029CC00FEF7D0FC0B48FDF76DFF0120FDF78AFDEB
:1029DC000346002B02D0084807F0B8F91037BD4663
:1029EC0080BD00BFC3230020EB2300207CB5000872
:1029FC0084B50008092A000890B5000880B586B097
:102A0C0000AFF860B9601346FB710120FDF76AFD59
:102A1C000346002B05D0FB791C481946BA6807F011
:102A2C00F1F8F8681A49042207F0E0F90346002B84
:102A3C001FD1FB680433184600210A2207F0F4FA70
:102A4C000346FB750120FDF74DFD0346002B04D01A
:102A5C00FB7D1048194607F0D5F8FB7D012019467F
:102A6C0000F046FCFB7918460B490622FEF730FBBA
:102A7C0005E0FB791846F968BA68FFF795FAFB7917
:102A8C001846FEF7ADFB1837BD4680BDA0B5000853
:102A9C00B4B50008BCB50008D0B5000890B5A5B019
:102AAC0002AFF860B9601346FB71002387F88730DA
:102ABC0007F1140364221846002107F065F8F86842
:102ACC0000F0DAFB0120FDF70DFD0346002B06D0CC
:102ADC00FB79C5481946BA68FB6807F093F8F868A3
:102AEC00C249042207F082F90346002B1FD1FB6870
:102AFC000433184600210A2207F096FA034687F899
:102B0C008630BB4B03F5955304331B6897F886202E
:102B1C001A70B74B03F5955304331B681B780120CF
:102B2C00194600F0E5FB012387F8873039E1F86896
:102B3C00B049072207F05AF90346002B53D1FB6822
:102B4C0007331846AC4907F095F9C7F88000D7F859
:102B5C00800000210A2207F067FA034687F87F30CD
:102B6C000120FDF7BFFC0346002B05D097F87F3002
:102B7C00A248194607F046F800209F4907F07AF959
:102B8C00C7F88000D7F8800000210A2207F04CFA21
:102B9C00034687F87E300120FDF7A4FC0346002B8A
:102BAC0005D097F87E309648194607F02BF897F821
:102BBC007F30002B16D097F87F30052B12D897F862
:102BCC007F30013B8A4A134403F59753183397F827
:102BDC007E20DA708B485821FFF778F8012387F8AC
:102BEC008730DEE0DDE0F8688749072207F0FEF861
:102BFC000346002B2BD1FB680733184600210A2211
:102C0C0007F012FA034687F87D3097F87D30002BD9
:102C1C001CD097F87D30052B18D897F87D4097F885
:102C2C007D30013B724A134403F597531833DB781C
:102C3C001A4607F11403009218466421734A23467E
:102C4C0007F08CF8012387F88730AAE0A9E0F86830
:102C5C006F49042207F0CAF80346002B07D16948D4
:102C6C005821FFF733F8012387F8873099E0F8688B
:102C7C006849052207F0BAF80346002B0ED1FB6811
:102C8C00053365481946282207F0C9F85D485821D4
:102C9C00FFF71CF8012387F8873082E0F8685F495A
:102CAC00052207F0A3F80346002B0ED1FB68053371
:102CBC005B481946282207F0B2F852485821FFF712
:102CCC0005F8012387F887306BE0F868554909222D
:102CDC0007F08CF80346002B06D15020FFF734FE8A
:102CEC00012387F887305CE0F8684F490A2207F027
:102CFC007DF80346002B06D1012000F017FB0123C1
:102D0C0087F887304DE0F8684849072207F06EF8DD
:102D1C000346002B0FD107F11402454B0093454B92
:102D2C00019310466421444A444B07F017F80123E1
:102D3C0087F8873035E0F8684149032207F056F8E8
:102D4C000346002B2DD1FB68DA1CBB68033B1046F5
:102D5C001946FEF759FE3B48FEF79CFE00233B61EB
:102D6C0007F11003184642F21071FEF7FFFDB86729
:102D7C00BB6F002B0AD03B6907F11402009310467D
:102D8C006421314ABB6F06F0E9FF07E007F1140339
:102D9C00184664212D4ABB6F06F0E0FF012387F82B
:102DAC008730FB79002B61D197F88730002B53D0FB
:102DBC0007F114031B78002B0BD00120FDF792FBBD
:102DCC000346002B05D007F114032148194606F0E1
:102DDC0019FF0120FDF786FB0346002B00F08B80CA
:102DEC001C4806F0B3FF86E0D8B50008B4B500085F
:102DFC0018110020F4B50008FCB5000800B6000856
:102E0C0008B60008C023002014B600081CB6000841
:102E1C002CB6000834B60008C32300203CB60008CA
:102E2C00EB23002044B6000850B600085CB600083E
:102E3C0080B600088CB6000864B600087CB60008A2
:102E4C0098B600089CB60008A0B60008B0B60008FA
:102E5C00BCB60008C0B600080120FDF743FB0346D2
:102E6C00002B48D0254806F071FF44E0FB79012B7C
:102E7C0041D10120FDF736FB0346002B0CD097F80F
:102E8C00874007F11403184606F0A8FF03461C48B8
:102E9C0021461A4606F0B6FE97F88730002B26D04E
:102EAC0007F114031B78002B1CD00120FDF71AFB33
:102EBC000346002B09D007F11403184606F08EFFC9
:102ECC0003461048194606F09DFE07F114031846F8
:102EDC0006F084FF03469BB207F114021046194614
:102EEC00FFF79EFA08480321FFF79AFA03E0074818
:102EFC000621FFF795FA8C37BD4690BDC4B6000885
:102F0C00CCB60008DCB60008F8B60008FCB6000821
:102F1C0080B500AF1F4B1B88002B02D01D4B00222D
:102F2C001A801C4B5B88632B02D91A4B00225A80E7
:102F3C00184BDB88B3F57A7F02D3164B0022DA806C
:102F4C00FDF78EFAFEF7FCFB134B1B68052B1FD10C
:102F5C00FFF7FEFA0F4B1B7C012B19D90D4B0022EE
:102F6C00DA730C4B00221A740A4BB3F812380B4864
:102F7C0019460122FFF792FD064B0022A3F81228F6
:102F8C00044B0022A3F81428024B0022A3F81628A5
:102F9C0080BD00BF18110020040E00202911002054
:102FAC0080B59CB004AF994B1B68994AA2FB0323D4
:102FBC009B091846FFF7A6FC0346002B00D0FEE742
:102FCC00FFF7B8FB93484FF40051FFF7D1FB924B3E
:102FDC0000934FF400730193904B029390484FF47D
:102FEC00E131904A8023FDF7F5F901200121FDF72D
:102FFC0059FA02200121FDF755FA0120FDF772FA6A
:10300C000346002B02D0884806F0A0FE874B002216
:10301C00A3F81428854BB3F81428844BA3F8122872
:10302C00824BB3F81228814BA3F816287F4B03F57B
:10303C0080531C3300221A807C4B03F580531C33C5
:10304C001A887A4B03F580531A331A80774B03F5A1
:10305C0080531A331A88754B03F580531E331A802C
:10306C00724B01229A734FF47A70FFF779FAFFF7DB
:10307C00D1FA05F037FA0120FDF734FA0346002B9C
:10308C0002D06B4806F062FE6A484FF4E131FDF75E
:10309C00BDFB0120FDF726FA0346002B02D0664843
:1030AC0006F054FE614B03F595530433634A1A60E2
:1030BC005E4B03F5955304331B681B78184600F0E0
:1030CC0007F90120FDF70EFA0346002B02D05C48ED
:1030DC0006F03CFE5B480121FEF7CAFD3B1D18467D
:1030EC005821FEF797FEBB884AF6CD3293420ED19B
:1030FC00BB79012B39D14D4B03F595530833194648
:10310C003B1D58220846194606F070FD2DE00023A1
:10311C00FB65464B03F5955308334AF6CD321A80BE
:10312C00424B03F595530A3301221A70464847491E
:10313C00282206F074FE44484549282206F06FFE0A
:10314C000023FB650AE0394AFB6D134403F59753E2
:10315C0018337F22DA70FB6D0133FB65FB6D042B9A
:10316C00F1DD3C485821FEF7B1FD0120FDF7BAF91D
:10317C000346002B02D0384806F0E8FD0120FDF78D
:10318C00B1F90346002B08D0284B03F595530833AF
:10319C001B883248194606F035FD0120FDF7A2F9CF
:1031AC000346002B08D0214B03F595530A331B78AB
:1031BC002B48194606F026FD0120FDF793F903462E
:1031CC00002B03D02748204906F01CFD0120FDF7F9
:1031DC0089F90346002B03D02348244906F012FD3D
:1031EC000120FDF77FF90346002B03D0204821492D
:1031FC0006F008FDAA20FFF711FB5020FFF7A4FBF7
:10320C000F20FFF70BFBFFF783FEFCE7E00B002022
:10321C00D34D621000100140BA210020A92A0008E9
:10322C00003801403A21002004B700081811002092
:10323C0010B700080044004020B7000813240020F9
:10324C0034B7000800FC0008C323002044B7000872
:10325C0050B70008C02300205CB7000868B700080E
:10326C007CB700088CB7000898B70008EB23002047
:10327C00A4B700087CB6000880B584B000AF7860B5
:10328C000023FB6078680D2106F09AFDF860FB685E
:10329C00002B02D0FB6800221A7078680A2106F015
:1032AC008FFDF860FB68002B02D0FB6800221A70BF
:1032BC001037BD4680BD00BF80B582B000AF7860CE
:1032CC007868FDF759FA7B6818460837BD4680BD0B
:1032DC0080B582B000AF0346FB7100F043F8FB7978
:1032EC000120194600F004F80837BD4680BD00BF28
:1032FC0080B584B000AF03460A46FB711346BB7120
:10330C000023BB81FB7943F01003DBB23B73BB7929
:10331C007B7300F0A1F807F10C031846022100F0B2
:10332C0033F900F0A7F81037BD4680BD80B584B0E6
:10333C0000AF0346FB710023BB81FB7943F02003F4
:10334C00DBB23B7300237B7300F086F807F10C03B0
:10335C001846022100F018F900F08CF81037BD4621
:10336C0080BD00BF80B586B000AF0420012102F003
:10337C00E5FF4FF48050012102F0E0FFA023BB8257
:10338C000323BB751823FB7507F114032C4819464E
:10339C0002F020FA1023BB821023FB7507F11403F3
:1033AC002748194602F016FA4FF440433B804FF47D
:1033BC0082737B800023BB800023FB8000233B8136
:1033CC004FF400737B811823BB810023FB810A23FC
:1033DC003B821C48002103F05DFB3B461948194613
:1033EC0003F002F90120012102F08AFF164801F0D6
:1033FC00ADF9164801F0AAF9154B164A1A60144B90
:10340C0000221A61124B80225A61114B00229A61E0
:10341C000F4B0022DA610E4B4FF480525A620C4B68
:10342C0000229A62074B9B89064A064B1B889BB26B
:10343C0043F040039BB213801837BD4680BD00BFDC
:10344C0000080140003001401C00024030000240E6
:10345C00182400200C30014080B400AF044A044B07
:10346C00DB6823F01003D360BD465DF8047B704726
:10347C000008014080B400AF044A044BDB6843F001
:10348C001003D360BD465DF8047B70470008014013
:10349C0080B584B000AF78600B467B800023FB8145
:1034AC001D4A1D4B1B889BB243F040039BB21380FB
:1034BC0020E000BF1848022103F054FB0346002B08
:1034CC00F8D0FB899BB25A1C92B2FA811A467B68DF
:1034DC0013441B789BB21048194603F04FFA00BFF7
:1034EC000D48012103F03EFB0346002BF8D00A489F
:1034FC0003F052FAFB899BB27A889A42D9D800BF62
:10350C000548022103F02EFB0346002BF8D07B88E4
:10351C0018461037BD4680BD0030014080B584B0E0
:10352C0000AF78600B467B80FF23FB720023FB60AF
:10353C001EE000BF1348022103F014FB0346002BCE
:10354C00F8D0104BFA7A92B29A8100BF0D48012143
:10355C0003F008FB0346002BF8D0FB687A68134491
:10356C00084A928992B2D2B21A70FB680133FB609E
:10357C007A88FB689A42DCDC7B8818461037BD469B
:10358C0080BD00BF0030014080B582B000AF7860D4
:10359C000B467B807B68274A53607B88254AD36027
:1035AC00244B10229A60234B00221A622248214994
:1035BC0001F088F9204A204B1B6843F0010313608B
:1035CC001E4A1E4B9B889BB243F002039BB2938016
:1035DC001A4A1A4B1B889BB243F040039BB21380D0
:1035EC0000BF4FF4007001F02BFA0346002BF8D00B
:1035FC0000BF1248022103F0B5FA0346002BF8D0A5
:10360C000F4B4FF400725A600B490B4B1A684FF674
:10361C00FE7313400B60094A084B9B889BB223F046
:10362C0003039BB29380054B9B897B881846083714
:10363C00BD4680BD182400203000024000300140FF
:10364C000000024080B586B000AFF8607A601A4680
:10365C000B467B8113463B810023FB82FB68354A7A
:10366C0053607B89334AD360324B10229A60314BC2
:10367C0020221A6230482F4901F024F97B682D4A28
:10368C0053603B892B4AD3602A4B00229A60294B0A
:10369C0000221A622948274901F014F9274A274BBE
:1036AC001B6843F001031360234A234B1B6843F050
:1036BC0001031360224A224B9B889BB243F0030305
:1036CC009BB293801E4A1E4B1B889BB243F0400357
:1036DC009BB2138000BF4FF4007001F0B1F90346A8
:1036EC00002BF8D000BF202001F0AAF90346002BD4
:1036FC00F9D0144B4FF408725A6010490F4B1A68EA
:10370C004FF6FE7313400B600B490B4B1A684FF6C8
:10371C00FE7313400B600A4A094B9B889BB223F043
:10372C0003039BB29380064B9B89FB8A1846183780
:10373C00BD4680BD18240020300002401C00024011
:10374C00003001400000024080B584B000AF7860CA
:10375C000B467B800023FB81354B00225A60344B97
:10376C000122DA60324B10229A60314B20221A620D
:10377C0030482F4901F0A6F87B682D4A53607B88AE
:10378C002B4AD3602A4B00229A60294B00221A62E2
:10379C002948274901F096F8274A274B1B6843F024
:1037AC0001031360234A234B1B6843F0010313608E
:1037BC00224A224B9B889BB243F003039BB293801B
:1037CC001E4A1E4B1B889BB243F040039BB21380D6
:1037DC0000BF4FF4007001F033F90346002BF8D012
:1037EC0000BF202001F02CF90346002BF9D0144B1C
:1037FC004FF408725A6010490F4B1A684FF6FE735B
:10380C0013400B600B490B4B1A684FF6FE731340B9
:10381C000B600A4A094B9B889BB223F003039BB2B3
:10382C009380064B9B89FB8918461037BD4680BD9B
:10383C0018240020300002401C00024000300140DF
:10384C000000024080B400AFBD465DF8047B7047B9
:10385C0080B400AF034A034BDB6843F40053D360DE
:10386C00FEE700BF0010014080B400AFFEE700BFD0
:10387C0080B400AFFEE700BF80B400AFFEE700BF2E
:10388C0080B400AFBD465DF8047B704780B400AFD8
:10389C00BD465DF8047B704780B400AFBD465DF853
:1038AC00047B704780B500AF254B1B8801339AB25F
:1038BC00234B1A80224B5B8801339AB2204B5A80DF
:1038CC001F4BDB8801339AB21D4BDA801D4B1B7FDB
:1038DC00002B05D01B4B5B7F0133DAB2194B5A77A7
:1038EC00194B1B681B7F002B05D0174B1B685A7F8D
:1038FC000132D2B25A77154B1B88002B05D0134BD3
:10390C001B88013B9AB2114B1A800D4BDB7B002BB1
:10391C0005D00B4B1B7C0133DAB2094B1A7402F045
:10392C0007FA074B9B885A1C91B2054A9180F92BD8
:10393C0004D9034B00229A80FEF780FF80BD00BFA4
:10394C00181100208C0D002000000020B00D00206C
:10395C0080B500AFFCF7E4FD80BD00BF80B500AFC3
:10396C00FEF74CF980BD00BF80B500AF00F0DCF96C
:10397C0080BD00BF80B500AF4FF4802001F0E8F9A6
:10398C0080BD00BF80B500AF154A154B1B6843F0D6
:10399C00010313601249124B5A68124B13404B60CF
:1039AC000F4A0F4B1B6823F0847323F4803313608E
:1039BC000B4A0B4B1B6823F480231360084A084BFB
:1039CC005B6823F4FE035360054B4FF41F029A60AF
:1039DC0000F07AF8044B4FF000629A6080BD00BF93
:1039EC00001002400000FFF800ED00E080B485B04C
:1039FC0000AF0023FB600023BB6000237B602D4BDA
:103A0C005B6803F00C03FB60FB68042B07D0082BEE
:103A1C0009D0002B34D1284B284A1A6034E0264BAD
:103A2C00264A1A6030E0234B5B6803F47013BB60CA
:103A3C00204B5B6803F480337B60BB689B0C0233C8
:103A4C00BB607B68002B06D1BB681D4A02FB03F3ED
:103A5C00194A136013E0174B5B6803F40033002B17
:103A6C0006D0BB68164A02FB03F3134A136006E048
:103A7C00BB68124A02FB03F30F4A136004E003E035
:103A8C000D4B0E4A1A6000BF0A4B5B6803F0F00343
:103A9C001B090C4AD35CDBB2FB60074B1A68FB6852
:103AAC0022FA03F3044A13601437BD465DF8047B15
:103ABC00704700BF00100240E00B002000127A009B
:103ACC0000093D00E40B002080B500AF00F002F8C7
:103ADC0080BD00BF80B483B000AF00237B600023A7
:103AEC003B603A4A394B1B6843F480331360374BC5
:103AFC001B6803F400333B607B6801337B603B68DD
:103B0C00002B03D17B68B3F5A06FF0D12F4B1B6852
:103B1C0003F40033002B02D001233B6001E00023AF
:103B2C003B603B68012B4BD1294A294B1B6843F066
:103B3C0010031360264A264B1B6823F00303136003
:103B4C00234A234B1B6843F0020313601F4A1F4B8D
:103B5C005B6853601D4A1D4B5B6853601B4A1B4BD3
:103B6C005B6843F480635360184A184B5B6823F41A
:103B7C007C135360154A154B5B6843F4E813536090
:103B8C00124A124B1B6843F08073136000BF0F4B3B
:103B9C001B6803F00073002BF9D00C4A0B4B5B68CD
:103BAC0023F003035360094A084B5B6843F002039C
:103BBC00536000BF054B5B6803F00C03082BF9D175
:103BCC000C37BD465DF8047B704700BF0010024007
:103BDC000020024080B582B000AF314B03F580531A
:103BEC001C331A882E4B03F580531A331B889A42C8
:103BFC003ED02B4B03F580531A331A88284B03F510
:103C0C0080531C331B88D31ABB800023FB71BB88E9
:103C1C003F2B02D8BB88FB7101E04023FB71204B8A
:103C2C0003F580531C331B8803F618031C4A1344FA
:103C3C009A1CFB799BB21046C0211A4604F06EFE0A
:103C4C00FB799BB20120194605F088FB012005F099
:103C5C0079F8134B03F580531C331A88FB799BB20C
:103C6C0013449AB20E4B03F580531C331A8014E0A4
:103C7C000B4B01229A730A4B03F580531C33002221
:103C8C001A80074B03F580531A3300221A80044B19
:103C9C0003F580531E3300221A800837BD4680BDC1
:103CAC001811002080B582B000AF032005F006FC8F
:103CBC000346FB800220FCF715FC0346002B04D0C6
:103CCC00FB881748194605F09DFF164BB3F81238C0
:103CDC001033144A13445A1CFB8810464FF4887155
:103CEC001A4604F055FE0F4BB3F81228FB88134408
:103CFC009AB20C4BA3F812280A4BB3F81228094BB2
:103D0C00B3F81438D31A9AB2064BA3F81628054BFD
:103D1C000122DA73034B00221A740837BD4680BDAA
:103D2C004CB800081811002080B58AB000AF0023F1
:103D3C007B62704B1B689AB26F4B1A806E4B1B8860
:103D4C009BB203F400736D4A12881340002B0AD007
:103D5C00684B4FF6FF521A60694B1B78DBB201338C
:103D6C00DAB2674B1A70644B1B889BB203F40043A6
:103D7C00624A12881340002B01D004F0D3FB5E4B37
:103D8C001B889BB203F480635C4A12881340002B9F
:103D9C0006D0584B4FF6FF321A605A4B5B68984767
:103DAC00554B1B889BB203F40053544A12881340A2
:103DBC00002B03D04F4B4DF6FF721A604E4B1B88F5
:103DCC009BB203F480534D4A12881340002B06D04B
:103DDC00484B4EF6FF721A60002000F065FB464B14
:103DEC001B889BB203F48073444A12881340002B47
:103DFC007CD0404B4FF6FF621A60434B1B689BB262
:103E0C001BB2002B6CDA414B1B6801333F4A136029
:103E1C003E4B1B68032B66D93D4B1B689BB203F0D2
:103E2C000803002B5FD13A4B1B689BB21A46394BE7
:103E3C001A6000237B6212E07B6A9B0003F18043D3
:103E4C0003F5B8431B689BB21A467B6A9B0007F1CB
:103E5C0028010B4443F8242C7B6A01337B627B6A78
:103E6C00072BE9D92B4B1B6843F00103294A13603C
:103E7C00274B284A126892B21A60264B1B6823F013
:103E8C000103244A1360224B224A126892B21A6030
:103E9C0000BF184B1B689BB203F48063002BF8D057
:103EAC00144B4FF6FF321A6000237B6211E07B6AE1
:103EBC009B0003F1804303F5B8437A6A920007F143
:103ECC0028010A4452F8242C92B21A607B6A0133FE
:103EDC007B627B6A072BEAD90C4B00221A6002E04A
:103EEC000A4B00221A60072000F0DEFA2837BD4684
:103EFC0080BD00BF445C004044240020A02400206E
:103F0C00F40D00205C0C0020485C0040F80D0020F3
:103F1C00405C0040FC0D002080B500AFFEF718FAA5
:103F2C00054B1B6800229A7200F0B4F905F0C6FD2F
:103F3C00024B00221A6080BD9C240020040E00203D
:103F4C0080B500AF364B1B6800229A72344B1B684D
:103F5C00344AD2795A72324B1B680022DA72002032
:103F6C0004F0A4FD00204FF4007104F0E7FD0020E4
:103F7C00102104F01FFE0020402105F095F90020CF
:103F8C00802105F06FF9002004F07CFF264B93F89C
:103F9C002C309BB20020194605F030FA002004F0BA
:103FAC00F9FE0120002104F0C9FD0120C02105F01B
:103FBC0059F90120202104F0FDFD0120002104F01D
:103FCC0031FE02204FF4C06104F0B8FD02204FF422
:103FDC00807105F047F90220002104F023FE022035
:103FEC00202104F0E7FD0320002104F0A7FD0320AD
:103FFC004FF4887105F058F90320402105F0FEF9C3
:10400C0003204FF4405104F00DFE0320002104F076
:10401C00D1FD002004F022FA044B01221A6080BD6D
:10402C009C240020D8B700085C0C0020040E002053
:10403C0080B483B000AF074B7B607B689B7A002B0E
:10404C0002D0054B05221A600C37BD465DF8047B87
:10405C00704700BF7C240020040E002080B400AF09
:10406C00034B04221A60BD465DF8047B704700BF09
:10407C00040E002080B400AF054B1B78202B02D11E
:10408C00034B00221A70BD465DF8047B704700BFDD
:10409C00000E002080B400AFBD465DF8047B704775
:1040AC0080B584B000AF0346FB710023FB60FB7945
:1040BC00212B09D1164B1B681B7803F07F03212B96
:1040CC0011D1144BFB600EE0FB79202B0BD1104B64
:1040DC001B681B7803F07F03212B01D10E4BFB6077
:1040EC000E4B20221A70FB68002B01D102230BE02F
:1040FC00074B1B68FA689A61054B1B6800225A82B1
:10410C00FB6800209847002318461037BD4680BD39
:10411C009C240020294200085D420008000E00206B
:10412C0080B483B000AF0346FB710C4B1B681B784B
:10413C0003F07F03212B09D1FB79022B01D1002342
:10414C0005E0FB79222B01D1002300E00223184665
:10415C000C37BD465DF8047B704700BF9C240020E3
:10416C0080B582B000AF0346FB80FB88184604493B
:10417C0003F0D4FC034618460837BD4680BD00BF8B
:10418C00B00C002080B582B000AF0346FB80FB88EA
:10419C001846044903F0C2FC034618460837BD46CE
:1041AC0080BD00BFB80C002080B584B000AF0346C2
:1041BC00FB800B4B1B68DB78FB73FB7B042B01D95F
:1041CC00002309E0FB7BDB00064A1344FA88104607
:1041DC00194603F0A3FC034618461037BD4680BDB4
:1041EC009C240020C00C002080B483B000AF034698
:1041FC000A46FB711346BB71BB79002B01D002231D
:10420C0005E0FB79012B01D9022300E000231846BD
:10421C000C37BD465DF8047B704700BF80B483B09B
:10422C0000AF0346FB80FB88002B05D1064B1B68B7
:10423C0008221A82002300E0044B18460C37BD46B6
:10424C005DF8047B704700BF9C240020500C0020BC
:10425C0080B483B000AF0346FB80FB88002B05D1F4
:10426C00064B1B6808221A82002300E0044B1846F8
:10427C000C37BD465DF8047B704700BF9C240020C2
:10428C00500C002080B400AF30BFBD465DF8047BFD
:10429C00704700BF80B483B000AF0123FB800E4A8F
:1042AC00FB8813600D4B00221A800B4B0B4A1288B3
:1042BC001A600B4B00221A60084B4FF4E0521A8024
:1042CC00054B064A12881A60002318460C37BD4667
:1042DC005DF8047B704700BF405C0040A0240020C8
:1042EC00445C004080B400AF074B01221A60074BBE
:1042FC0000221A60044B03221A6000231846BD46A4
:10430C005DF8047B704700BF405C0040445C00409B
:10431C0080B584B000AF0023FB600023BB6000239A
:10432C003B60504B1B68FB800023FB600FE0FB687D
:10433C009B0003F1804303F5B8431B689BB21946FD
:10434C00494AFB6842F82310FB680133FB60FB68A9
:10435C00072BECD9FB8843F48063FB80414AFB8834
:10436C001360FB8843F00103FB803E4AFB8813601B
:10437C00FB8823F00103FB803A4AFB88136000BFE3
:10438C003A4B1B689BB203F48063002BF8D0374B7D
:10439C004FF6FF321A600023FB600EE0FB689B00B7
:1043AC0003F1804303F5B8432F49FA6851F82220F2
:1043BC0092B21A60FB680133FB60FB68072BEDD9E6
:1043CC00FB8843F00803FB80264AFB881360254BCF
:1043DC001B68FB80FB8843F00403FB80214AFB88AD
:1043EC001360234B1B683B60214B1B68BB60BB6895
:1043FC0023F00303BB60BB6843F00103BB601C4AA2
:10440C00BB6813601B4A1B4B1B6943F0040313610D
:10441C00164B1B689BB203F48053002B08D1FFF79B
:10442C0031FF144A134B1B6923F00403136116E08C
:10443C000E4B4EF6FF721A600A4B1B68FB80FB8812
:10444C0023F00803FB80074AFB881360084A3B688B
:10445C001360084A074B1B6923F0040313611037E0
:10446C00BD4680BD405C00404C240020445C0040B4
:10447C000070004000ED00E080B582B000AF094B49
:10448C001B68FB80FB8823F00403FB80054AFB8838
:10449C001360FDF743FF034B4FF437421A600837A4
:1044AC00BD4680BD405C004080B584B000AF034683
:1044BC00FB71FB79072B02D03E4AFB7913703D4B05
:1044CC001B78DBB2052B6DD801A252F823F000BF8C
:1044DC00F544000811450008234500083145000843
:1044EC005345000875450008334B1B68002B05D15C
:1044FC00FFF7C2FF2F4B06221A7057E02D4B0522F7
:10450C001A7053E0FFF7B8FF2A4B04221A702A4B9B
:10451C0001221A604AE0274B02225A70254B0322D3
:10452C001A7043E0234B5B78DBB2013BDAB2214BD0
:10453C005A70204B5B78DBB2002B03D11D4B04224D
:10454C001A7033E032E01D4B1B68FB81FB8943F092
:10455C001003FB81194AFB891360164B05221A7054
:10456C00144B0A225A7021E0124B5B78DBB2013BF0
:10457C00DAB2104B5A700F4B5B78DBB2002B10D1B8
:10458C000E4B1B68FB81FB8923F01003FB810B4A4C
:10459C00FB891360074B06221A70074B00221A6026
:1045AC0004E003E0034B06221A7000BF1037BD462F
:1045BC0080BD00BF48240020080E0020405C004055
:1045CC0080B483B000AF7860054A7B6843F0BF636A
:1045DC0043F40033D3600C37BD465DF8047B704761
:1045EC0000ED00E080B487B000AF786000237B6101
:1045FC0000233B610F23FB607B68DB78002B3AD0F8
:10460C00274BDB68DB4303F4E0631B0A7B617B69AC
:10461C00C3F104033B617B69FA6822FA03F3FB6084
:10462C007B685B781A463B6902FA03F37B617B6813
:10463C009B781A46FB6813407A6913437B617B694C
:10464C001B017B61174A7B681B787969C9B21344DB
:10465C000A4683F80023134A7B681B785B09DBB29C
:10466C0018467B681B7803F01F03012101FA03F342
:10467C0042F820300FE00B497B681B785B09DBB2FA
:10468C0018467B681B7803F01F0301229A4000F147
:10469C00200341F823201C37BD465DF8047B70478E
:1046AC0000ED00E000E100E080B483B000AF786082
:1046BC00396007493B6823F0604323F07F037A6835
:1046CC0013438B600C37BD465DF8047B704700BF0D
:1046DC0000ED00E080B483B000AF03460A46FB71E6
:1046EC001346BB71BB79002B06D00949084B1A69DC
:1046FC00FB7913430B6106E00549054B1A69FB79FD
:10470C00DB4313400B610C37BD465DF8047B7047EF
:10471C0000ED00E080B483B000AF78607B68042BC0
:10472C0006D1094A084B1B6843F00403136005E0EB
:10473C00054A054B1B6823F0040313600C37BD4678
:10474C005DF8047B704700BF10E000E080B483B0DC
:10475C0000AF78607B681A684FF6FE7313407A6876
:10476C0013607B6800221A607B6800225A607B68A9
:10477C0000229A607B680022DA607B68434A93428D
:10478C0006D1434A424B5B6843F00F03536077E01A
:10479C007B68404A934206D13D4A3D4B5B6843F0EF
:1047AC00F00353606CE07B683B4A934206D1384A75
:1047BC00374B5B6843F47063536061E07B68374A46
:1047CC00934206D1324A324B5B6843F470435360D8
:1047DC0056E07B68324A934206D12D4A2C4B5B68DB
:1047EC0043F4702353604BE07B682E4A934206D10E
:1047FC00274A274B5B6843F47003536040E07B68A7
:10480C00294A934206D1224A214B5B6843F07063DC
:10481C00536035E07B68254A934206D1244A244BE9
:10482C005B6843F00F0353602AE07B68214A934294
:10483C0006D11F4A1E4B5B6843F0F00353601FE028
:10484C007B681D4A934206D1194A194B5B6843F4A5
:10485C007063536014E07B68184A934206D1144A83
:10486C00134B5B6843F47043536009E07B68144A54
:10487C00934205D10E4A0E4B5B6843F47023536090
:10488C000C37BD465DF8047B704700BF0800024042
:10489C00000002401C000240300002404400024074
:1048AC00580002406C0002408000024008040240A4
:1048BC00000402401C040240300402404404024044
:1048CC005804024080B485B000AF78603960002392
:1048DC00FB607B681B68FB60FB6823F4FF4323F0E1
:1048EC007003FB603B689A683B681B6A1A433B6821
:1048FC001B691A433B685B691A433B689B691A4303
:10490C003B68DB691A433B685B6A1A433B689B6AEA
:10491C001343FA681343FB607B68FA681A603B68C0
:10492C00DA687B685A603B681A687B689A603B68F7
:10493C005A687B68DA601437BD465DF8047B7047B3
:10494C0080B483B000AF78607B6800221A607B680B
:10495C0000225A607B6800229A607B680022DA6031
:10496C007B6800221A617B6800225A617B680022F6
:10497C009A617B680022DA617B6800221A627B688C
:10498C0000225A627B6800229A620C37BD465DF8A1
:10499C00047B704780B483B000AF78600B46FB702B
:1049AC00FB78002B06D07B681B6843F001027B6808
:1049BC001A6006E07B681A684FF6FE7313407A683B
:1049CC0013600C37BD465DF8047B704780B485B02E
:1049DC0000AFF860B9601346FB71FB79002B06D071
:1049EC00FB681A68BB681A43FB681A6006E0FB6830
:1049FC001A68BB68DB431A40FB681A601437BD4663
:104A0C005DF8047B704700BF80B483B000AF786062
:104A1C000B467B807A887B685A600C37BD465DF804
:104A2C00047B704780B483B000AF78607B685B68B0
:104A3C009BB218460C37BD465DF8047B704700BF2F
:104A4C0080B485B000AF78600023FB730023BB609B
:104A5C007B6803F08053002B03D00C4B1B68BB60AE
:104A6C0002E00B4B1B68BB60BA687B681340002BE1
:104A7C0002D00123FB7301E00023FB73FB7B184680
:104A8C001437BD465DF8047B704700BF000402403C
:104A9C000000024080B483B000AF78607B6803F004
:104AAC008053002B03D0064A7B68536002E0054A12
:104ABC007B6853600C37BD465DF8047B704700BFC4
:104ACC00000402400000024080B485B000AF786062
:104ADC000023FB730023BB607B6803F08053002B27
:104AEC0003D00C4B1B68BB6002E00B4B1B68BB601C
:104AFC00BA687B681340002B02D00123FB7301E0E2
:104B0C000023FB73FB7B18461437BD465DF8047B12
:104B1C00704700BF000402400000024080B483B024
:104B2C0000AF78607B6803F08053002B03D0064AFB
:104B3C007B68536002E0054A7B6853600C37BD46C6
:104B4C005DF8047B704700BF000402400000024087
:104B5C0080B400AF094B00221A60084B00225A6047
:104B6C00064B00229A60054B0022DA60034B044A84
:104B7C005A61BD465DF8047B704700BF00040140DC
:104B8C00FFFF0F0080B485B000AF78600023FB609E
:104B9C00344BFB607B689B79002B4FD03149314BF8
:104BAC001A687B681B68DB4313400B602D492D4B47
:104BBC005A687B681B68DB4313404B607B681B792E
:104BCC001A46FB681344FB60FB68FA6811687A6844
:104BDC0012680A431A602349224B9A687B681B6847
:104BEC00DB4313408B601F491E4BDA687B681B68E4
:104BFC00DB431340CB607B685B79102B0ED11949DA
:104C0C00184B9A687B681B6813438B601549154BCE
:104C1C00DA687B681B681343CB601DE0114BFB60AB
:104C2C007B685B791A46FB681344FB60FB68FA6887
:104C3C0011687A6812680A431A600DE07B681B7968
:104C4C001A46FB681344FB60FB68FA6811687A68C3
:104C5C001268D2430A401A601437BD465DF8047BD3
:104C6C00704700BF0004014080B483B000AF78608F
:104C7C007B6800221A607B6800221A717B680C2208
:104C8C005A717B6800229A710C37BD465DF8047B23
:104C9C00704700BF80B483B000AF78600549054B06
:104CAC001A697B6813430B610C37BD465DF8047BB6
:104CBC00704700BF0004014080B485B000AF78603D
:104CCC000023FB73084B5A697B681340002B02D0FE
:104CDC000123FB7301E00023FB73FB7B18461437A5
:104CEC00BD465DF8047B70470004014080B483B07E
:104CFC0000AF7860034A7B6853610C37BD465DF8A2
:104D0C00047B70470004014080B485B000AF78602C
:104D1C000023FB730023BB600C4B1A687B681340A9
:104D2C00BB600A4B5A697B681340002B05D0BB68EB
:104D3C00002B02D00123FB7301E00023FB73FB7BF0
:104D4C0018461437BD465DF8047B704700040140DB
:104D5C0080B483B000AF7860034A7B6853610C3732
:104D6C00BD465DF8047B70470004014080B485B0FB
:104D7C0000AF78600023FB60094B1B68FB60FB688D
:104D8C0003F03803FB60FA687B681343FB60044A4A
:104D9C00FB6813601437BD465DF8047B704700BF99
:104DAC000020024080B483B000AF7860084A084B02
:104DBC001B6823F0080313600549054B1A687B68D0
:104DCC0013430B600C37BD465DF8047B704700BF86
:104DDC000020024080B483B000AF7860084A084BD2
:104DEC001B6823F0100313600549054B1A687B6898
:104DFC0013430B600C37BD465DF8047B704700BF56
:104E0C000020024080B400AF044B054A5A60034BAB
:104E1C00044A5A60BD465DF8047B7047002002408E
:104E2C0023016745AB89EFCD80B400AF044B054A35
:104E3C005A60034B044A5A60BD465DF8047B7047C8
:104E4C000020024023016745AB89EFCD80B400AF51
:104E5C00044A044B1B6943F080031361BD465DF8A3
:104E6C00047B70470020024080B400AF044A044B1E
:104E7C001B6943F080031361BD465DF8047B7047EA
:104E8C000020024080B584B000AF78600423FB732F
:104E9C004FF4302000F0DCFB0346FB73FB7B042B50
:104EAC001BD1104A0F4B1B6943F0020313610D4ACF
:104EBC007B6853610B4A0B4B1B6943F04003136136
:104ECC004FF4302000F0C4FB0346FB730549054B3F
:104EDC001A6941F6FD7313400B61FB7B18461037C2
:104EEC00BD4680BD0020024080B582B000AF0423D7
:104EFC00FB714FF4302000F0ABFB0346FB71FB79E8
:104F0C00042B18D10E4A0E4B1B6943F0040313619A
:104F1C000B4A0B4B1B6943F0400313614FF43020D9
:104F2C0000F096FB0346FB710549054B1A6941F6E7
:104F3C00FB7313400B61FB7918460837BD4680BDE7
:104F4C000020024080B582B000AF0423FB714FF407
:104F5C00302000F09FFB0346FB71FB79042B18D12A
:104F6C000E4A0E4B1B6943F0040313610B4A0B4BA7
:104F7C001B6943F0400313614FF4302000F08AFBAF
:104F8C000346FB710549054B1A6941F6FB73134047
:104F9C000B61FB7918460837BD4680BD00200240E6
:104FAC0080B582B000AFA523FB8004237B7100F099
:104FBC006DFA0346002B01D00023FB804FF4302008
:104FCC0000F046FB03467B717B79042B45D1254BC6
:104FDC00254A9A60234B254A9A60224A214B1B6929
:104FEC0043F0200313611F4A1E4B1B6943F040031F
:104FFC0013614FF4302000F02BFB03467B717B795F
:10500C00042B20D11749174B1A6941F6DF73134053
:10501C000B61144A134B1B6943F010031361144AC0
:10502C00FB8813804FF4005000F012FB03467B7199
:10503C007B79052B11D00B490A4B1A6941F6EF739A
:10504C0013400B6109E07B79052B06D00549054B14
:10505C001A6941F6EF7313400B617B7918460837D8
:10506C00BD4680BD0020024023016745AB89EFCDD2
:10507C0000F8FF1F80B584B000AF7860396004235E
:10508C00FB730023BB604FF4005000F0E1FA0346C1
:10509C00FB73FB7B042B30D11A4A1A4B1B6943F070
:1050AC00010313617B683A6892B21A804FF4005086
:1050BC0000F0CEFA0346FB73FB7B042B16D17B6806
:1050CC000233BB60BB681A463B681B0C9BB2138057
:1050DC004FF4005000F0BCFA0346FB730949094B2E
:1050EC001A6941F6FE7313400B6106E00549054B46
:1050FC001A6941F6FE7313400B61FB7B184610379F
:10510C00BD4680BD0020024080B584B000AF786001
:10511C000B467B800423FB734FF4005000F098FA8D
:10512C000346FB73FB7B042B15D10D4A0C4B1B69FF
:10513C0043F0010313617B687A881A804FF40050A6
:10514C0000F086FA0346FB730549054B1A6941F6D4
:10515C00FE7313400B61FB7B18461037BD4680BDB8
:10516C000020024080B584B000AF78600B46FB7025
:10517C000423FB734FF4005000F06AFA0346FB73F0
:10518C00FB7B042B1FD1124B124A9A60104B124A14
:10519C009A600F4A0E4B1B6943F0100313617B6836
:1051AC00FA7892B21A804FF4005000F051FA03468C
:1051BC00FB73FB7B052B06D00549054B1A6941F6A1
:1051CC00EF7313400B61FB7B18461037BD4680BD57
:1051DC000020024023016745AB89EFCD80B586B036
:1051EC0000AF78604FF6FF73BB824FF6FF737B8284
:1051FC004FF6FF733B824FF6FF73FB810423FB7565
:10520C007B68DB437B607B689BB2DBB2BB827B68D9
:10521C0003F47F431B0A7B827B6803F47F031B0C24
:10522C003B827B681B0EFB814FF4005000F010FAA0
:10523C000346FB75FB7D042B4ED12A4B2A4A9A6000
:10524C00284B2A4A9A60274A264B1B6943F01003C5
:10525C001361BB8AFF2B08D0254ABB8A13814FF4FC
:10526C00005000F0F5F90346FB75FB7D042B0BD1C8
:10527C007B8AFF2B08D01E4A7B8A53814FF4005047
:10528C0000F0E6F90346FB75FB7D042B0BD13B8A42
:10529C00FF2B08D0164A3B8A93814FF4005000F044
:1052AC00D7F90346FB75FB7D042B0BD1FB89FF2B38
:1052BC0008D00F4AFB89D3814FF4005000F0C8F995
:1052CC000346FB75FB7D052B06D00649054B1A6979
:1052DC0041F6EF7313400B61FB7D18461837BD4642
:1052EC0080BD00BF0020024023016745AB89EFCD94
:1052FC0000F8FF1F80B584B000AF0346FB71042398
:10530C00FB734FF4302000F0A3F90346FB73FB7BD7
:10531C00042B4CD1284B294A9A60274B284A9A6077
:10532C00254A254B1B6943F020031361224A224B6B
:10533C001B6943F0400313614FF4302000F088F9EF
:10534C000346FB73FB7B042B27D11B491A4B1A69B1
:10535C0041F6DF7313400B61174A174B1B6943F07F
:10536C0010031361FB79002B03D0164B00221A801B
:10537C0002E0144BA5221A804FF4302000F068F99B
:10538C000346FB73FB7B052B11D00B490A4B1A69A7
:10539C0041F6EF7313400B6109E0FB7B052B06D044
:1053AC000549054B1A6941F6DF7313400B61FB7B12
:1053BC0018461037BD4680BD0020024023016745CA
:1053CC00AB89EFCD00F8FF1F80B584B000AF03466A
:1053DC00FB800B46BB8013467B800423FB731B4B6B
:1053EC001B4A9A60194B1B4A9A604FF4005000F00C
:1053FC002FF90346FB73FB7B042B21D1134A134B70
:10540C001B6943F01003136113497A88BB8813435B
:10541C009AB2FB8813439BB243F0F8039BB24B80C8
:10542C004FF4005000F014F90346FB73FB7B052B83
:10543C0006D00649054B1A6941F6EF7313400B6110
:10544C00FB7B18461037BD4680BD00BF00200240D4
:10545C0023016745AB89EFCD00F8FF1F80B400AF87
:10546C00034BDB699B081846BD465DF8047B70470F
:10547C000020024080B400AF034B1B6A1846BD46A7
:10548C005DF8047B704700BF0020024080B483B0FD
:10549C0000AF0023FB71094BDB6903F00203002B07
:1054AC0002D00123FB7101E00023FB71FB7918464C
:1054BC000C37BD465DF8047B704700BF00200240EE
:1054CC0080B483B000AF0023FB71094B1B6803F061
:1054DC002003002B02D00123FB7101E00023FB71A0
:1054EC00FB7918460C37BD465DF8047B704700BF4E
:1054FC000020024080B483B000AF78600B46FB7094
:10550C00FB78002B06D00949084B1A697B681343BA
:10551C000B6106E00549054B1A697B68DB431340B8
:10552C000B610C37BD465DF8047B704700200240D0
:10553C0080B485B000AF78600023FB737B68012BCF
:10554C000BD10F4BDB6903F00103002B02D00123BD
:10555C00FB730DE00023FB730AE0094BDA687B68F0
:10556C001340002B02D00123FB7301E00023FB73DB
:10557C00FB7B18461437BD465DF8047B704700BFB3
:10558C000020024080B483B000AF7860034A7B688F
:10559C00D3600C37BD465DF8047B70470020024099
:1055AC0080B483B000AF0423FB71124BDB6803F0B3
:1055BC000103002B02D00123FB7113E00D4BDB68C0
:1055CC0003F00403002B02D00223FB710AE0094B09
:1055DC00DB6803F01003002B02D00323FB7101E006
:1055EC000423FB71FB7918460C37BD465DF8047B30
:1055FC00704700BF0020024080B483B000AF04238A
:10560C00FB71124BDB6803F00103002B02D001236A
:10561C00FB7113E00D4BDB6803F00403002B02D08D
:10562C000223FB710AE0094BDB6803F01003002B2B
:10563C0002D00323FB7101E00423FB71FB791846B4
:10564C000C37BD465DF8047B704700BF002002405C
:10565C0080B584B000AF78600423FB73FFF7CCFFF8
:10566C000346FB7306E0FFF7C7FF0346FB737B683B
:10567C00013B7B60FB7B012B02D17B68002BF2D1C1
:10568C007B68002B01D10523FB73FB7B184610377D
:10569C00BD4680BD80B584B000AF78600423FB7339
:1056AC00FFF7AAFF0346FB7306E0FFF7A5FF0346CF
:1056BC00FB737B68013B7B60FB7B012B02D17B681E
:1056CC00002BF2D17B68002B01D10523FB73FB7BF4
:1056DC0018461037BD4680BD80B582B000AF7860EB
:1056EC007B682F4A934208D10420012100F062FE0E
:1056FC000420002100F05EFE4EE07B68294A9342B4
:10570C0008D10820012100F055FE0820002100F0EE
:10571C0051FE41E07B68244A934208D110200121BC
:10572C0000F048FE1020002100F044FE34E07B68BD
:10573C001E4A934208D12020012100F03BFE20207C
:10574C00002100F037FE27E07B68194A934208D10C
:10575C004020012100F02EFE4020002100F02AFE06
:10576C001AE07B68134A934208D18020012100F093
:10577C0021FE8020002100F01DFE0DE07B680E4A0A
:10578C00934209D14FF48070012100F013FE4FF4C5
:10579C008070002100F00EFE0837BD4680BD00BFB2
:1057AC0000080140000C01400010014000140140B1
:1057BC0000180140001C01400020014080B500AFE2
:1057CC000120012100F0F6FD0120002100F0F2FD86
:1057DC0080BD00BF80B489B000AF78603960002311
:1057EC00FB6100233B610023BB610023FB600023B2
:1057FC007B610023BB603B68DB7803F00F03FB612C
:10580C003B68DB7803F01003002B05D03B689B78DA
:10581C001A46FB691343FB613B681B88DBB2002B08
:10582C0044D07B681B687B610023BB6138E0BB699B
:10583C00012202FA03F3FB603B681B881A46FB68E3
:10584C0013403B613A69FB689A4226D1BB699B00C5
:10585C00FB60FB680F2202FA03F3BB60BB68DB43FF
:10586C007A6913407B61FB68FA6902FA03F37A697F
:10587C0013437B613B68DB78282B05D1BB69012284
:10588C009A407B685A6108E03B68DB78482B04D16E
:10589C00BB6901229A407B681A61BB690133BB6109
:1058AC00BB69072BC3D97B687A691A603B681B8874
:1058BC00FF2B4AD97B685B687B610023BB613EE0B0
:1058CC00BB6908331A4601239340FB603B681B8875
:1058DC001A46FB6813403B613A69FB689A422BD12C
:1058EC00BB699B00FB60FB680F2202FA03F3BB60F1
:1058FC00BB68DB437A6913407B61FB68FA6902FA87
:10590C0003F37A6913437B613B68DB78282B07D15F
:10591C00BB6908331A46012303FA02F27B685A6109
:10592C003B68DB78482B07D1BB6908331A46012347
:10593C0003FA02F27B681A61BB690133BB61BB6974
:10594C00072BBDD97B687A695A602437BD465DF850
:10595C00047B704780B483B000AF78607B684FF6EF
:10596C00FF721A807B6802229A707B680422DA70BC
:10597C000C37BD465DF8047B704700BF80B485B022
:10598C0000AF78600B467B800023FB737B689A68C2
:10599C007B881340002B02D00123FB7301E0002312
:1059AC00FB73FB7B18461437BD465DF8047B7047D0
:1059BC0080B483B000AF78607B689B689BB218465C
:1059CC000C37BD465DF8047B704700BF80B485B0D2
:1059DC0000AF78600B467B800023FB737B68DA6832
:1059EC007B881340002B02D00123FB7301E00023C2
:1059FC00FB73FB7B18461437BD465DF8047B704780
:105A0C0080B483B000AF78607B68DB689BB21846CB
:105A1C000C37BD465DF8047B704700BF80B483B083
:105A2C0000AF78600B467B807A887B681A610C37F4
:105A3C00BD465DF8047B704780B483B000AF7860DE
:105A4C000B467B807A887B685A610C37BD465DF8C3
:105A5C00047B704780B483B000AF78600B467B80CA
:105A6C0013467B707B78002B03D07A887B681A6195
:105A7C0002E07A887B685A610C37BD465DF8047B7E
:105A8C00704700BF80B483B000AF78600B467B805A
:105A9C007A887B68DA600C37BD465DF8047B70470A
:105AAC0080B485B000AF78600B467B804FF48033B8
:105ABC00FB607B88FA681343FB607B68FA689A6129
:105ACC007A887B689A617B68FA689A617B689B69C3
